{
  "contractName": "WNS",
  "abi": [
    {
      "inputs": [
        {
          "internalType": "address[]",
          "name": "_superUsers",
          "type": "address[]"
        }
      ],
      "stateMutability": "nonpayable",
      "type": "constructor"
    },
    {
      "anonymous": false,
      "inputs": [
        {
          "indexed": false,
          "internalType": "string",
          "name": "handle",
          "type": "string"
        }
      ],
      "name": "HandleRemoved",
      "type": "event"
    },
    {
      "anonymous": false,
      "inputs": [
        {
          "indexed": false,
          "internalType": "string",
          "name": "handle",
          "type": "string"
        },
        {
          "indexed": false,
          "internalType": "string",
          "name": "displayName",
          "type": "string"
        }
      ],
      "name": "NewDisplayName",
      "type": "event"
    },
    {
      "anonymous": false,
      "inputs": [
        {
          "indexed": false,
          "internalType": "string",
          "name": "handle",
          "type": "string"
        },
        {
          "indexed": false,
          "internalType": "bytes",
          "name": "data",
          "type": "bytes"
        },
        {
          "indexed": true,
          "internalType": "address",
          "name": "owner",
          "type": "address"
        }
      ],
      "name": "NewHandle",
      "type": "event"
    },
    {
      "anonymous": false,
      "inputs": [
        {
          "indexed": false,
          "internalType": "string",
          "name": "handle",
          "type": "string"
        },
        {
          "indexed": false,
          "internalType": "string",
          "name": "imageLocation",
          "type": "string"
        }
      ],
      "name": "NewImageLocation",
      "type": "event"
    },
    {
      "anonymous": false,
      "inputs": [
        {
          "indexed": false,
          "internalType": "string",
          "name": "handle",
          "type": "string"
        },
        {
          "indexed": false,
          "internalType": "bytes",
          "name": "data",
          "type": "bytes"
        }
      ],
      "name": "NewPeerId",
      "type": "event"
    },
    {
      "anonymous": false,
      "inputs": [
        {
          "indexed": false,
          "internalType": "string",
          "name": "handle",
          "type": "string"
        },
        {
          "indexed": true,
          "internalType": "address",
          "name": "newOwner",
          "type": "address"
        }
      ],
      "name": "OwnershipTransferred",
      "type": "event"
    },
    {
      "inputs": [
        {
          "internalType": "address",
          "name": "",
          "type": "address"
        }
      ],
      "name": "superUsers",
      "outputs": [
        {
          "internalType": "bool",
          "name": "",
          "type": "bool"
        }
      ],
      "stateMutability": "view",
      "type": "function"
    },
    {
      "inputs": [
        {
          "internalType": "address",
          "name": "owner",
          "type": "address"
        },
        {
          "internalType": "string",
          "name": "handle",
          "type": "string"
        },
        {
          "internalType": "string",
          "name": "_displayName",
          "type": "string"
        },
        {
          "internalType": "string",
          "name": "_imageLocation",
          "type": "string"
        },
        {
          "internalType": "bytes",
          "name": "_data",
          "type": "bytes"
        }
      ],
      "name": "addHandle",
      "outputs": [],
      "stateMutability": "nonpayable",
      "type": "function"
    },
    {
      "inputs": [
        {
          "internalType": "string",
          "name": "handle",
          "type": "string"
        },
        {
          "internalType": "string",
          "name": "_displayName",
          "type": "string"
        },
        {
          "internalType": "string",
          "name": "_imageLocation",
          "type": "string"
        },
        {
          "internalType": "bytes",
          "name": "_data",
          "type": "bytes"
        }
      ],
      "name": "createHandle",
      "outputs": [],
      "stateMutability": "nonpayable",
      "type": "function"
    },
    {
      "inputs": [
        {
          "internalType": "string",
          "name": "handle",
          "type": "string"
        },
        {
          "internalType": "address",
          "name": "newOwner",
          "type": "address"
        }
      ],
      "name": "transferOwnership",
      "outputs": [],
      "stateMutability": "nonpayable",
      "type": "function"
    },
    {
      "inputs": [
        {
          "internalType": "string",
          "name": "handle",
          "type": "string"
        },
        {
          "internalType": "string",
          "name": "newName",
          "type": "string"
        }
      ],
      "name": "changeDisplayName",
      "outputs": [],
      "stateMutability": "nonpayable",
      "type": "function"
    },
    {
      "inputs": [
        {
          "internalType": "string",
          "name": "handle",
          "type": "string"
        },
        {
          "internalType": "string",
          "name": "newImageLocation",
          "type": "string"
        }
      ],
      "name": "changeImageLocation",
      "outputs": [],
      "stateMutability": "nonpayable",
      "type": "function"
    },
    {
      "inputs": [
        {
          "internalType": "string",
          "name": "handle",
          "type": "string"
        },
        {
          "internalType": "bytes",
          "name": "data",
          "type": "bytes"
        }
      ],
      "name": "changePeerId",
      "outputs": [],
      "stateMutability": "nonpayable",
      "type": "function"
    },
    {
      "inputs": [
        {
          "internalType": "string",
          "name": "handleName",
          "type": "string"
        }
      ],
      "name": "getHandleInfo",
      "outputs": [
        {
          "internalType": "address",
          "name": "owner",
          "type": "address"
        },
        {
          "internalType": "string",
          "name": "handle",
          "type": "string"
        },
        {
          "internalType": "string",
          "name": "displayName",
          "type": "string"
        },
        {
          "internalType": "string",
          "name": "imageLocation",
          "type": "string"
        },
        {
          "internalType": "bytes",
          "name": "data",
          "type": "bytes"
        }
      ],
      "stateMutability": "view",
      "type": "function"
    },
    {
      "inputs": [
        {
          "internalType": "string",
          "name": "handle",
          "type": "string"
        }
      ],
      "name": "isHandleAvailable",
      "outputs": [
        {
          "internalType": "bool",
          "name": "",
          "type": "bool"
        }
      ],
      "stateMutability": "view",
      "type": "function"
    },
    {
      "inputs": [
        {
          "internalType": "string",
          "name": "handle",
          "type": "string"
        }
      ],
      "name": "removeHandle",
      "outputs": [],
      "stateMutability": "nonpayable",
      "type": "function"
    }
  ],
  "bytecode": "0x60806040523480156200001157600080fd5b506040516200265b3803806200265b833981810160405260208110156200003757600080fd5b81019080805160405193929190846401000000008211156200005857600080fd5b9083019060208201858111156200006e57600080fd5b82518660208202830111640100000000821117156200008c57600080fd5b82525081516020918201928201910280838360005b83811015620000bb578181015183820152602001620000a1565b5050505090500160405250505060005b815181101562000122576001806000848481518110620000e757fe5b6020908102919091018101516001600160a01b03168252810191909152604001600020805460ff1916911515919091179055600101620000cb565b505061252780620001346000396000f3fe608060405234801561001057600080fd5b506004361061009e5760003560e01c8063a5c7a55411610066578063a5c7a554146104a1578063ae3fc1a3146105ff578063b7a8b58c146106bd578063c0e793c21461077b578063c1b5d181146107f25761009e565b8063278af122146100a3578063654dcefa146101635780638c1efee11461019d57806392791e0a1461020b5780639be40ed614610279575b600080fd5b610161600480360360408110156100b957600080fd5b810190602081018135600160201b8111156100d357600080fd5b8201836020820111156100e557600080fd5b803590602001918460018302840111600160201b8311171561010657600080fd5b919390929091602081019035600160201b81111561012357600080fd5b82018360208201111561013557600080fd5b803590602001918460018302840111600160201b8311171561015657600080fd5b509092509050610960565b005b6101896004803603602081101561017957600080fd5b50356001600160a01b0316610cda565b604080519115158252519081900360200190f35b610189600480360360208110156101b357600080fd5b810190602081018135600160201b8111156101cd57600080fd5b8201836020820111156101df57600080fd5b803590602001918460018302840111600160201b8311171561020057600080fd5b509092509050610cef565b6101616004803603602081101561022157600080fd5b810190602081018135600160201b81111561023b57600080fd5b82018360208201111561024d57600080fd5b803590602001918460018302840111600160201b8311171561026e57600080fd5b509092509050610d50565b6102e76004803603602081101561028f57600080fd5b810190602081018135600160201b8111156102a957600080fd5b8201836020820111156102bb57600080fd5b803590602001918460018302840111600160201b831117156102dc57600080fd5b509092509050611082565b60405180866001600160a01b0316815260200180602001806020018060200180602001858103855289818151815260200191508051906020019080838360005b8381101561033f578181015183820152602001610327565b50505050905090810190601f16801561036c5780820380516001836020036101000a031916815260200191505b5085810384528851815288516020918201918a019080838360005b8381101561039f578181015183820152602001610387565b50505050905090810190601f1680156103cc5780820380516001836020036101000a031916815260200191505b50858103835287518152875160209182019189019080838360005b838110156103ff5781810151838201526020016103e7565b50505050905090810190601f16801561042c5780820380516001836020036101000a031916815260200191505b50858103825286518152865160209182019188019080838360005b8381101561045f578181015183820152602001610447565b50505050905090810190601f16801561048c5780820380516001836020036101000a031916815260200191505b50995050505050505050505060405180910390f35b610161600480360360808110156104b757600080fd5b810190602081018135600160201b8111156104d157600080fd5b8201836020820111156104e357600080fd5b803590602001918460018302840111600160201b8311171561050457600080fd5b919390929091602081019035600160201b81111561052157600080fd5b82018360208201111561053357600080fd5b803590602001918460018302840111600160201b8311171561055457600080fd5b919390929091602081019035600160201b81111561057157600080fd5b82018360208201111561058357600080fd5b803590602001918460018302840111600160201b831117156105a457600080fd5b919390929091602081019035600160201b8111156105c157600080fd5b8201836020820111156105d357600080fd5b803590602001918460018302840111600160201b831117156105f457600080fd5b509092509050611343565b6101616004803603604081101561061557600080fd5b810190602081018135600160201b81111561062f57600080fd5b82018360208201111561064157600080fd5b803590602001918460018302840111600160201b8311171561066257600080fd5b919390929091602081019035600160201b81111561067f57600080fd5b82018360208201111561069157600080fd5b803590602001918460018302840111600160201b831117156106b257600080fd5b509092509050611429565b610161600480360360408110156106d357600080fd5b810190602081018135600160201b8111156106ed57600080fd5b8201836020820111156106ff57600080fd5b803590602001918460018302840111600160201b8311171561072057600080fd5b919390929091602081019035600160201b81111561073d57600080fd5b82018360208201111561074f57600080fd5b803590602001918460018302840111600160201b8311171561077057600080fd5b509092509050611751565b6101616004803603604081101561079157600080fd5b810190602081018135600160201b8111156107ab57600080fd5b8201836020820111156107bd57600080fd5b803590602001918460018302840111600160201b831117156107de57600080fd5b9193509150356001600160a01b0316611a79565b610161600480360360a081101561080857600080fd5b6001600160a01b038235169190810190604081016020820135600160201b81111561083257600080fd5b82018360208201111561084457600080fd5b803590602001918460018302840111600160201b8311171561086557600080fd5b919390929091602081019035600160201b81111561088257600080fd5b82018360208201111561089457600080fd5b803590602001918460018302840111600160201b831117156108b557600080fd5b919390929091602081019035600160201b8111156108d257600080fd5b8201836020820111156108e457600080fd5b803590602001918460018302840111600160201b8311171561090557600080fd5b919390929091602081019035600160201b81111561092257600080fd5b82018360208201111561093457600080fd5b803590602001918460018302840111600160201b8311171561095557600080fd5b509092509050611e26565b83838080601f0160208091040260200160405190810160405280939291908181526020018383808284376000920182905250604051855191945084935083925085916020918201918291908401908083835b602083106109d15780518252601f1990920191602091820191016109b2565b6001836020036101000a03801982511681845116808217855250505050505090500191505060405160208183030381529060405280519060200120815260200190815260200160002060000160009054906101000a90046001600160a01b03166001600160a01b03161415610a86576040805162461bcd60e51b815260206004820152601660248201527548616e646c6520646f6573206e6f742065786973747360501b604482015290519081900360640190fd5b84848080601f0160208091040260200160405190810160405280939291908181526020018383808284376000920182905250604051855133955091935083925085916020918201918291908401908083835b60208310610af75780518252601f199092019160209182019101610ad8565b6001836020036101000a03801982511681845116808217855250505050505090500191505060405160208183030381529060405280519060200120815260200190815260200160002060000160009054906101000a90046001600160a01b03166001600160a01b031614610ba0576040805162461bcd60e51b815260206004820152601d60248201526000805160206124af833981519152604482015290519081900360640190fd5b82610bf2576040805162461bcd60e51b815260206004820152601760248201527f456d707974206e616d6573206e6f7420616c6c6f776564000000000000000000604482015290519081900360640190fd5b838360008089896040516020018083838082843780830192505050925050506040516020818303038152906040528051906020012081526020019081526020016000206002019190610c4592919061234a565b507fe1e8ee041e85b13e71bd1ddc5fc2aed68cdf86be95e141fe6597e6e7c8e32976868686866040518080602001806020018381038352878782818152602001925080828437600083820152601f01601f191690910184810383528581526020019050858580828437600083820152604051601f909101601f19169092018290039850909650505050505050a1505050505050565b60016020526000908152604090205460ff1681565b6000806001600160a01b03166000808585604051602001808383808284376040805191909301818103601f1901825283528051602091820120875286019690965293909301600020546001600160a01b031694909414979650505050505050565b81818080601f0160208091040260200160405190810160405280939291908181526020018383808284376000920182905250604051855191945084935083925085916020918201918291908401908083835b60208310610dc15780518252601f199092019160209182019101610da2565b6001836020036101000a03801982511681845116808217855250505050505090500191505060405160208183030381529060405280519060200120815260200190815260200160002060000160009054906101000a90046001600160a01b03166001600160a01b03161415610e76576040805162461bcd60e51b815260206004820152601660248201527548616e646c6520646f6573206e6f742065786973747360501b604482015290519081900360640190fd5b82828080601f0160208091040260200160405190810160405280939291908181526020018383808284376000920182905250604051855133955091935083925085916020918201918291908401908083835b60208310610ee75780518252601f199092019160209182019101610ec8565b6001836020036101000a03801982511681845116808217855250505050505090500191505060405160208183030381529060405280519060200120815260200190815260200160002060000160009054906101000a90046001600160a01b03166001600160a01b031614610f90576040805162461bcd60e51b815260206004820152601d60248201526000805160206124af833981519152604482015290519081900360640190fd5b6000808585604051602001808383808284376040805191909301818103601f1901825283528051602091820120875286019690965293909301600090812080546001600160a01b031916815594509250610ff091505060018301826123d6565b610ffe6002830160006123d6565b61100c6003830160006123d6565b61101a6004830160006123d6565b50507f22c728ed9cd2aa0234885bf19aa18a87367098caf1a10d7bad373a36af7ab129848460405180806020018281038252848482818152602001925080828437600083820152604051601f909101601f19169092018290039550909350505050a150505050565b600060608060608060008787604051602001808383808284376040805191909301818103601f190182528084528151602092830120600081815280845285902080546001918201805460026101009482161594909402600019011692909204601f81018690048602850186019097528684526001600160a01b03169e5090985090965094509192505083018282801561115c5780601f106111315761010080835404028352916020019161115c565b820191906000526020600020905b81548152906001019060200180831161113f57829003601f168201915b505050600084815260208181526040918290206002908101805484516001821615610100026000190190911692909204601f8101849004840283018401909452838252959a509493509091508301828280156111f95780601f106111ce576101008083540402835291602001916111f9565b820191906000526020600020905b8154815290600101906020018083116111dc57829003601f168201915b505050600084815260208181526040918290206003018054835160026001831615610100026000190190921691909104601f810184900484028201840190945283815295995093509091508301828280156112955780601f1061126a57610100808354040283529160200191611295565b820191906000526020600020905b81548152906001019060200180831161127857829003601f168201915b505050600084815260208181526040918290206004018054835160026001831615610100026000190190921691909104601f810184900484028201840190945283815295985093509091508301828280156113315780601f1061130657610100808354040283529160200191611331565b820191906000526020600020905b81548152906001019060200180831161131457829003601f168201915b50505050509150509295509295909350565b61141f3389898080601f01602080910402602001604051908101604052809392919081815260200183838082843760009201919091525050604080516020601f8d018190048102820181019092528b815292508b91508a908190840183828082843760009201919091525050604080516020601f8c018190048102820181019092528a815292508a915089908190840183828082843760009201919091525050604080516020601f8b018190048102820181019092528981529250899150889081908401838280828437600092019190915250611fb292505050565b5050505050505050565b83838080601f0160208091040260200160405190810160405280939291908181526020018383808284376000920182905250604051855191945084935083925085916020918201918291908401908083835b6020831061149a5780518252601f19909201916020918201910161147b565b6001836020036101000a03801982511681845116808217855250505050505090500191505060405160208183030381529060405280519060200120815260200190815260200160002060000160009054906101000a90046001600160a01b03166001600160a01b0316141561154f576040805162461bcd60e51b815260206004820152601660248201527548616e646c6520646f6573206e6f742065786973747360501b604482015290519081900360640190fd5b84848080601f0160208091040260200160405190810160405280939291908181526020018383808284376000920182905250604051855133955091935083925085916020918201918291908401908083835b602083106115c05780518252601f1990920191602091820191016115a1565b6001836020036101000a03801982511681845116808217855250505050505090500191505060405160208183030381529060405280519060200120815260200190815260200160002060000160009054906101000a90046001600160a01b03166001600160a01b031614611669576040805162461bcd60e51b815260206004820152601d60248201526000805160206124af833981519152604482015290519081900360640190fd5b8383600080898960405160200180838380828437808301925050509250505060405160208183030381529060405280519060200120815260200190815260200160002060030191906116bc92919061234a565b507f2e7598835193fe26916c4323aa7bef6031a9cb1eee8a77f4bf014dfdc9098d2b868686866040518080602001806020018381038352878782818152602001925080828437600083820152601f01601f191690910184810383528581526020019050858580828437600083820152604051601f909101601f19169092018290039850909650505050505050a1505050505050565b83838080601f0160208091040260200160405190810160405280939291908181526020018383808284376000920182905250604051855191945084935083925085916020918201918291908401908083835b602083106117c25780518252601f1990920191602091820191016117a3565b6001836020036101000a03801982511681845116808217855250505050505090500191505060405160208183030381529060405280519060200120815260200190815260200160002060000160009054906101000a90046001600160a01b03166001600160a01b03161415611877576040805162461bcd60e51b815260206004820152601660248201527548616e646c6520646f6573206e6f742065786973747360501b604482015290519081900360640190fd5b84848080601f0160208091040260200160405190810160405280939291908181526020018383808284376000920182905250604051855133955091935083925085916020918201918291908401908083835b602083106118e85780518252601f1990920191602091820191016118c9565b6001836020036101000a03801982511681845116808217855250505050505090500191505060405160208183030381529060405280519060200120815260200190815260200160002060000160009054906101000a90046001600160a01b03166001600160a01b031614611991576040805162461bcd60e51b815260206004820152601d60248201526000805160206124af833981519152604482015290519081900360640190fd5b8383600080898960405160200180838380828437808301925050509250505060405160208183030381529060405280519060200120815260200190815260200160002060040191906119e492919061234a565b507f5c07809334a1254f7c8dee6a699729db6a482818384469f8355bacaa6b0cc3ea868686866040518080602001806020018381038352878782818152602001925080828437600083820152601f01601f191690910184810383528581526020019050858580828437600083820152604051601f909101601f19169092018290039850909650505050505050a1505050505050565b82828080601f0160208091040260200160405190810160405280939291908181526020018383808284376000920182905250604051855191945084935083925085916020918201918291908401908083835b60208310611aea5780518252601f199092019160209182019101611acb565b6001836020036101000a03801982511681845116808217855250505050505090500191505060405160208183030381529060405280519060200120815260200190815260200160002060000160009054906101000a90046001600160a01b03166001600160a01b03161415611b9f576040805162461bcd60e51b815260206004820152601660248201527548616e646c6520646f6573206e6f742065786973747360501b604482015290519081900360640190fd5b83838080601f0160208091040260200160405190810160405280939291908181526020018383808284376000920182905250604051855133955091935083925085916020918201918291908401908083835b60208310611c105780518252601f199092019160209182019101611bf1565b6001836020036101000a03801982511681845116808217855250505050505090500191505060405160208183030381529060405280519060200120815260200190815260200160002060000160009054906101000a90046001600160a01b03166001600160a01b031614611cb9576040805162461bcd60e51b815260206004820152601d60248201526000805160206124af833981519152604482015290519081900360640190fd5b826001600160a01b038116611d06576040805162461bcd60e51b815260206004820152600e60248201526d0c081859191c995cdcc81cd95b9d60921b604482015290519081900360640190fd5b60008686604051602001808383808284376040805191909301818103601f190182528352805160209182012060008181529182905292902054919550506001600160a01b0390811690891614159250611d939150505760405162461bcd60e51b81526004018080602001828103825260238152602001806124cf6023913960400191505060405180910390fd5b6000818152602081815260409182902080546001600160a01b0319166001600160a01b0389169081179091558251828152918201899052917f6d82ace1ded9997251e5a150555aeb78d9d890a0d3170f41385af11b46c0973f918a918a919081908101848480828437600083820152604051601f909101601f19169092018290039550909350505050a250505050505050565b3360009081526001602052604090205460ff16611e7d576040805162461bcd60e51b815260206004820152601060248201526f2737ba10309039bab832b9103ab9b2b960811b604482015290519081900360640190fd5b886001600160a01b038116611eca576040805162461bcd60e51b815260206004820152600e60248201526d0c081859191c995cdcc81cd95b9d60921b604482015290519081900360640190fd5b611fa68a8a8a8080601f01602080910402602001604051908101604052809392919081815260200183838082843760009201919091525050604080516020601f8e018190048102820181019092528c815292508c91508b908190840183828082843760009201919091525050604080516020601f8d018190048102820181019092528b815292508b91508a908190840183828082843760009201919091525050604080516020601f8c018190048102820181019092528a815292508a9150899081908401838280828437600092019190915250611fb292505050565b50505050505050505050565b8360006001600160a01b0316600080836040516020018082805190602001908083835b60208310611ff45780518252601f199092019160209182019101611fd5565b6001836020036101000a03801982511681845116808217855250505050505090500191505060405160208183030381529060405280519060200120815260200190815260200160002060000160009054906101000a90046001600160a01b03166001600160a01b0316146120af576040805162461bcd60e51b815260206004820152601760248201527f48616e646c6520697320616c72656164792074616b656e000000000000000000604482015290519081900360640190fd5b6000855111612105576040805162461bcd60e51b815260206004820152601a60248201527f456d7074792068616e646c65206e616d652070726f7669646564000000000000604482015290519081900360640190fd5b6000856040516020018082805190602001908083835b6020831061213a5780518252601f19909201916020918201910161211b565b51815160209384036101000a60001901801990921691161790526040805192909401828103601f1901835280855282519282019290922060a0830185526001600160a01b038e811684528383018e81528487018e9052606085018d9052608085018c9052600083815280855296909620845181546001600160a01b0319169216919091178155945180519198509296509394506121df9360018601935091019061241d565b50604082015180516121fb91600284019160209091019061241d565b506060820151805161221791600384019160209091019061241d565b506080820151805161223391600484019160209091019061241d565b50905050866001600160a01b03167f79579a9f6e2f72429f8ebc39ea39532e8579cac5ff8b886e447ee8f10e8890bd8785604051808060200180602001838103835285818151815260200191508051906020019080838360005b838110156122a557818101518382015260200161228d565b50505050905090810190601f1680156122d25780820380516001836020036101000a031916815260200191505b50838103825284518152845160209182019186019080838360005b838110156123055781810151838201526020016122ed565b50505050905090810190601f1680156123325780820380516001836020036101000a031916815260200191505b5094505050505060405180910390a250505050505050565b828054600181600116156101000203166002900490600052602060002090601f01602090048101928261238057600085556123c6565b82601f106123995782800160ff198235161785556123c6565b828001600101855582156123c6579182015b828111156123c65782358255916020019190600101906123ab565b506123d2929150612499565b5090565b50805460018160011615610100020316600290046000825580601f106123fc575061241a565b601f01602090049060005260206000209081019061241a9190612499565b50565b828054600181600116156101000203166002900490600052602060002090601f01602090048101928261245357600085556123c6565b82601f1061246c57805160ff19168380011785556123c6565b828001600101855582156123c6579182015b828111156123c657825182559160200191906001019061247e565b5b808211156123d2576000815560010161249a56fe556e617574686f72697a65642061636365737320746f2048616e646c650000004e6577206f776e65722069732073616d652061732070726576696f7573206f776e6572a26469706673582212209ea3fc324ee293240ff0881cd72afaff57de5ebd22099de52abee8a0b75d886b64736f6c63430007050033",
  "immutableReferences": {},
  "source": "pragma solidity 0.7.5;\n\n/**\n* @dev Worldwide OpenBazaar Resource Finder Naming Service(WorfNS)\n* A simple naming service to register handles on FCFS basis\n* It will map uniques handle to openbazaar addresses i.e. peerId\n* handle=>peerId\n*/\ncontract WNS {\n\n    event NewHandle(string handle, bytes data, address indexed owner);\n\n    event NewDisplayName(string handle, string displayName);\n\n    event NewImageLocation(string handle, string imageLocation);\n\n    event NewPeerId(string handle, bytes data);\n\n    event OwnershipTransferred(string handle, address indexed newOwner);\n\n    event HandleRemoved(string handle);\n\n    struct Handle{\n        address handleOwner;//Owner of the handle\n        string handleName;//This should be unqiue in nature\n        string displayName;//Need not to be unqiue\n        string imageLocation;//Can be an URI or IPNS address\n        bytes data;//extra data\n    }\n\n    //Unique handle hash versus Handle\n    mapping(bytes32=>Handle) handleNameHashVsHandle;\n\n    //addresses who are allowed to handles on other user's behalf\n    mapping(address=>bool) public superUsers;\n\n    modifier onlyHandleOwner(string memory handle){\n        require(\n            handleNameHashVsHandle[keccak256(abi.encodePacked(handle))].handleOwner == msg.sender,\n            \"Unauthorized access to Handle\"\n        );\n        _;\n    }\n\n    modifier handleExists(string memory handle){\n        require(\n            handleNameHashVsHandle[keccak256(abi.encodePacked(handle))].handleOwner != address(0),\n            \"Handle does not exists\"\n        );\n        _;\n    }\n\n    modifier handleAvailable(string memory handle){\n        require(\n            handleNameHashVsHandle[keccak256(abi.encodePacked(handle))].handleOwner == address(0),\n            \"Handle is already taken\"\n        );\n        _;\n    }\n\n    modifier nonZeroAddress(address _address){\n        require(_address != address(0), \"0 address sent\");\n        _;\n    }\n\n    modifier onlySuperUser(){\n        require(superUsers[msg.sender], \"Not a super user\");\n        _;\n    }\n\n    constructor(address[] memory _superUsers)public {\n\n        for(uint i = 0;i<_superUsers.length;i++){\n\n            superUsers[_superUsers[i]] = true;\n\n        }\n    }\n\n    /**\n    * @dev Allows super user to add handle on other user's behalf\n    * @param owner The address of the owner\n    * @param handle Unique Handle\n    * @param _displayName Display name of the entity\n    * @param _imageLocation URI or IPNS of the image\n    * @param _data Extra data\n    */\n    function addHandle(\n        address owner,\n        string calldata handle,\n        string calldata _displayName,\n        string calldata _imageLocation,\n        bytes calldata _data\n    )\n        external\n        onlySuperUser\n        nonZeroAddress(owner)\n    {\n\n        _createHandle(\n            owner,\n            handle,\n            _displayName,\n            _imageLocation,\n            _data\n        );\n    }\n\n    /**\n    * @dev Method to create new handle\n    * @param handle Unique Handle\n    * @param _displayName Display name of the entity\n    * @param _imageLocation URI or IPNS of the image\n    * @param _data Extra data\n    */\n    function createHandle(\n        string calldata handle,\n        string calldata _displayName,\n        string calldata _imageLocation,\n        bytes calldata _data\n    )\n        external\n    {\n\n        _createHandle(\n            msg.sender,\n            handle,\n            _displayName,\n            _imageLocation,\n            _data\n        );\n       \n    }\n\n    //helper method to add/create new handle in the contract\n    function _createHandle(\n        address owner,\n        string memory handle,\n        string memory _displayName,\n        string memory _imageLocation,\n        bytes memory data\n    )\n        private\n        handleAvailable(handle)\n    {\n\n        require(bytes(handle).length>0, \"Empty handle name provided\");\n\n        bytes32 handleHash = keccak256(abi.encodePacked(handle));\n\n        handleNameHashVsHandle[handleHash] = Handle({\n            handleOwner:owner,\n            handleName:handle,\n            displayName:_displayName,\n            imageLocation:_imageLocation,\n            data:data\n        });\n\n        emit NewHandle(handle, data, owner);\n    }\n\n    /**\n    * @dev Transfer handle ownership to new address\n    * @param handle Handle whose ownership has to be changed\n    * @param newOwner Address of the new owner\n    */\n    function transferOwnership(\n        string calldata handle,\n        address newOwner\n    )\n        external\n        handleExists(handle)\n        onlyHandleOwner(handle)\n        nonZeroAddress(newOwner)\n    {\n\n        bytes32 handleHash = keccak256(abi.encodePacked(handle));\n\n        require(\n            newOwner != handleNameHashVsHandle[handleHash].handleOwner,\n            \"New owner is same as previous owner\"\n        );\n\n        handleNameHashVsHandle[handleHash].handleOwner = newOwner;\n\n        emit OwnershipTransferred(handle, newOwner);\n\n    }\n\n    /**\n    * @dev Method to change display name of the entity\n    * @param handle Handle whose display name has to be changed\n    * @param newName New Display Name\n    */\n    function changeDisplayName(\n        string calldata handle,\n        string calldata newName\n    )\n        external\n        handleExists(handle)\n        onlyHandleOwner(handle)\n    {\n\n        require(bytes(newName).length>0, \"Empyt names not allowed\");\n\n        handleNameHashVsHandle[keccak256(abi.encodePacked(handle))].displayName = newName;\n\n        emit NewDisplayName(handle, newName);\n    }\n\n    /**\n    * @dev Method to change Location of Image\n    * @param handle Handle whose image location has to be changed\n    * @param newImageLocation New Image Location\n    */\n    function changeImageLocation(\n        string calldata handle,\n        string calldata newImageLocation\n    )\n        external\n        handleExists(handle)\n        onlyHandleOwner(handle)\n    {\n\n        handleNameHashVsHandle[keccak256(abi.encodePacked(handle))].imageLocation = newImageLocation;\n\n        emit NewImageLocation(handle, newImageLocation);\n    }\n\n    /**\n    * @dev Method to extra data\n    * @param handle Handle whose extra data has to be changed\n    * @param data change extra data\n    */\n    function changePeerId(\n        string calldata handle,\n        bytes calldata data\n    )\n        external\n        handleExists(handle)\n        onlyHandleOwner(handle)\n    {\n\n        handleNameHashVsHandle[keccak256(abi.encodePacked(handle))].data = data;\n\n        emit NewPeerId(handle, data);\n    }\n\n    /**\n    * @dev Method to get handle info about specific handle\n    * @param handleName The handle whose info has to be fetched\n    */\n    function getHandleInfo(\n        string calldata handleName\n    )\n        external\n        view\n        returns(\n            address owner,\n            string memory handle,\n            string memory displayName,\n            string memory imageLocation,\n            bytes memory data\n        )\n    {\n\n        bytes32 handleBytes = keccak256(abi.encodePacked(handleName));\n\n        owner = handleNameHashVsHandle[handleBytes].handleOwner;\n        handle = handleNameHashVsHandle[handleBytes].handleName;\n        displayName = handleNameHashVsHandle[handleBytes].displayName;\n        imageLocation = handleNameHashVsHandle[handleBytes].imageLocation;\n        data = handleNameHashVsHandle[handleBytes].data;\n    }\n\n    /**\n    * @dev Method to check availability of the handle\n    * @param handle Handle whose availability has to be checked\n    */\n    function isHandleAvailable(string calldata handle)external view returns(bool){\n        \n        return handleNameHashVsHandle[keccak256(abi.encodePacked(handle))].handleOwner == address(0);\n    }\n    \n    /** \n    * @dev Method to remove handleS\n    * @param handle Handle to be removed\n    */\n    function removeHandle(\n        string calldata handle\n    )\n        external\n        handleExists(handle)\n        onlyHandleOwner(handle)\n    {\n        \n        delete handleNameHashVsHandle[keccak256(abi.encodePacked(handle))];        \n        emit HandleRemoved(handle);\n    }\n}",
  "sourcePath": "/home/sameep/freelancing-projects/toptal/yflink/wns/contracts/WNS.sol",
  "compiler": {
    "name": "solc",
    "version": "0.7.5+commit.eb77ed08.Emscripten.clang"
  },
  "schemaVersion": "3.3.2",
  "updatedAt": "2020-12-11T06:50:03.209Z",
  "devdoc": {
    "details": "Worldwide OpenBazaar Resource Finder Naming Service(WorfNS) A simple naming service to register handles on FCFS basis It will map uniques handle to openbazaar addresses i.e. peerId handle=>peerId",
    "kind": "dev",
    "methods": {
      "addHandle(address,string,string,string,bytes)": {
        "details": "Allows super user to add handle on other user's behalf",
        "params": {
          "_data": "Extra data",
          "_displayName": "Display name of the entity",
          "_imageLocation": "URI or IPNS of the image",
          "handle": "Unique Handle",
          "owner": "The address of the owner"
        }
      },
      "changeDisplayName(string,string)": {
        "details": "Method to change display name of the entity",
        "params": {
          "handle": "Handle whose display name has to be changed",
          "newName": "New Display Name"
        }
      },
      "changeImageLocation(string,string)": {
        "details": "Method to change Location of Image",
        "params": {
          "handle": "Handle whose image location has to be changed",
          "newImageLocation": "New Image Location"
        }
      },
      "changePeerId(string,bytes)": {
        "details": "Method to extra data",
        "params": {
          "data": "change extra data",
          "handle": "Handle whose extra data has to be changed"
        }
      },
      "createHandle(string,string,string,bytes)": {
        "details": "Method to create new handle",
        "params": {
          "_data": "Extra data",
          "_displayName": "Display name of the entity",
          "_imageLocation": "URI or IPNS of the image",
          "handle": "Unique Handle"
        }
      },
      "getHandleInfo(string)": {
        "details": "Method to get handle info about specific handle",
        "params": {
          "handleName": "The handle whose info has to be fetched"
        }
      },
      "isHandleAvailable(string)": {
        "details": "Method to check availability of the handle",
        "params": {
          "handle": "Handle whose availability has to be checked"
        }
      },
      "removeHandle(string)": {
        "details": "Method to remove handleS",
        "params": {
          "handle": "Handle to be removed"
        }
      },
      "transferOwnership(string,address)": {
        "details": "Transfer handle ownership to new address",
        "params": {
          "handle": "Handle whose ownership has to be changed",
          "newOwner": "Address of the new owner"
        }
      }
    },
    "version": 1
  },
  "userdoc": {
    "kind": "user",
    "methods": {},
    "version": 1
  }
}